:100000007017002011040000490400004B04000098
:1000100000000000000000000000000000000000E0
:100020000000000000000000000000004D0400007F
:1000300000000000000000004F0400005104000018
:100040005304000055040000570400005904000048
:100050005B0400005D0400005F0400006104000018
:1000600063040000650400006704000069040000E8
:100070006B0400006D0400006F04000071040000B8
:100080007304000075040000770400007904000088
:100090007B0400007D0400007F0400008104000058
:1000A0008304000085040000870400008904000028
:1000B0009D0500005B0400008D0400008F0400001B
:1000C0000000000000000000000000000000000030
:1000D0000000000000000000000000000000000020
:1000E0000000000000000000000000000000000010
:1000F0000000000000000000000000000000000000
:10040000FFFFFFFFFFFFFFFFFFFFFFFFFEFFFFFFFD
:100410001F48002101601F481F49204A002A05D0BB
:100420000023C458CC5004339342FADB1C481D49C6
:100430001D4A002A05D000230024C45004339342EF
:10044000FBDB00F063F8FEE7FEE7FEE7FEE7FEE712
:10045000FEE7FEE7FEE7FEE7FEE7FEE7FEE7FEE774
:10046000FEE7FEE7FEE7FEE7FEE7FEE7FEE7FEE764
:10047000FEE7FEE7FEE7FEE7FEE7FEE7FEE7FEE754
:10048000FEE7FEE7FEE7FEE7FEE7FEE7FEE7FEE744
:10049000008104406007000030F8FF1F00000000EA
:1004A00030F8FF1F30F8FF1F0000000080B582B059
:1004B00000AF0200FB1D1A70064BFA1D12781100E6
:1004C0001F220A40012191400A001A60C046BD4621
:1004D00002B080BD00E100E080B582B000AF020054
:1004E000FB1D1A70084AFB1D1B7819001F230B40C7
:1004F000012199400B001900C0235B00D150C04678
:10050000BD4602B080BDC04600E100E080B500AF4E
:1005100000F056F80949094A094BD35880221201C4
:100520001343074A8B50074B802252005A61064BF7
:1005300020225A6100F00AF830BFFDE70070044045
:100540003810000000B0044080F00F4080B500AFCC
:100550000E490E4A0E4BD358012213430C4A8B50BE
:100560000C4B00221A600B4B43225A60094B0A4A7B
:100570009A601C20FFF7B0FF064BC1221A601C20B6
:10058000FFF794FFC046BD4680BDC04600700440E2
:100590003810000000000440093D000080B500AFA5
:1005A000054B054A126880210A431A60034B20223A
:1005B000DA60C046BD4680BD0000044080F00F40B8
:1005C00080B582B000AF5E4B8A221A705D4B242248
:1005D0005A705C4BA0221A70BB1D00221A800BE0DF
:1005E000584B9B79DBB21A00022313400AD1BB1D82
:1005F0001A88BB1D01321A80BB1D1B88524A9342C8
:10060000EED900E0C046BB1D00221A800BE04D4B26
:100610009B79DBB21A00102313400AD0BB1D1A8845
:10062000BB1D01321A80BB1D1B88484A9342EED97C
:1006300000E0C046BB1D00221A800CE0414B9B79B4
:10064000DBB29B0803221340022B0AD0BB1D1A8881
:10065000BB1D01321A80BB1D1B883C4A9342EDD959
:1006600000E0C046374A374B1B79DBB203210B430E
:10067000DBB21371334B5B79DBB23B603B681F220B
:1006800093433B603B68402213433B602D4B3A68E9
:10069000D2B25A71BB1D00221A800BE0294B9B7904
:1006A000DBB21A00202313400AD1BB1D1A88BB1DE0
:1006B00001321A80BB1D1B88244A9342EED900E008
:1006C000C046BB1D00221A800BE01E4B9B79DBB29B
:1006D0001A00402313400AD1BB1D1A88BB1D0132EA
:1006E0001A80BB1D1B881A4A9342EED900E0C0460F
:1006F000184A194B1949D150124A124B1B78DBB2D8
:100700003F210B40DBB21370BB1D00221A800CE0AE
:100710000C4B9B79DBB29B0803221340032B0AD0BE
:10072000BB1D1A88BB1D01321A80BB1D1B88074ADE
:100730009342EDD900E0C046C046BD4602B080BD40
:1007400000500640004006401F4E0000CF0700004A
:100750009F0F0000007004404410000000000110D2
:00000001FF
