:10000000701700203D040000000000000000000008
:1000100000000000000000000000000000000000E0
:1000200000000000000000000000000000000000D0
:1000300000000000000000000000000000000000C0
:1000400000000000000000000000000000000000B0
:10040000FFFFFFFFFFFFFFFFFFFFFFFFFEFFFFFFFD
:1004100000F009F800F005F800F009F800F001F824
:10042000F6E7C046F746044820210160F746024837
:1004300000210160F746000080F00F4012480021C3
:1004400001601248124901601248134901601348C3
:100450002021016012481349134A002A05D00023C5
:10046000C45CCC5401339342FADB10481049114A62
:10047000002A05D000230024C45004339342FBDB40
:1004800000F01AF8C4E7FEE7008104403880044019
:10049000823F000014B004404301000094F00F407C
:1004A000C404000030F8FF1F0000000030F8FF1FF8
:1004B00030F8FF1F0000000080B500AF00231800D7
:0404C000BD4680BDF8
:00000001FF
