:100000007017002011040000000000000000000034
:1000100000000000000000000000000000000000E0
:1000200000000000000000000000000000000000D0
:1000300000000000000000000000000000000000C0
:1000400000000000000000000000000000000000B0
:10040000FFFFFFFFFFFFFFFFFFFFFFFFFEFFFFFFFD
:100410000D48002101600D480D490E4A002A05D003
:100420000023C45CCC5401339342FADB0A480B49E5
:100430000B4A002A05D000230024C4500433934201
:10044000FBDB00F00FF8FEE700810440F804000039
:1004500030F8FF1F1000000040F8FF1F40F8FF1F9A
:100460000000000080B500AF0C4B1B680C4A1A60FE
:100470000C4B1B684422FF321A600B4B1B68202276
:100480001A600A4B1B6820221A6000F011F8074B13
:100490001B6800221A6000F00BF8F2E730F8FF1F2B
:1004A000823F000034F8FF1F38F8FF1F3CF8FF1FA1
:1004B00080B582B000AFBB1D00221A8011E07B1D09
:1004C00000221A7004E07B1D1A787B1D01321A701D
:1004D0007B1D1B78FF2BF6D1BB1D1A88BB1D01327B
:1004E0001A80BB1D1B88034A9342E8D9C046BD460B
:0804F00002B080BDFE0F000008
:1004F8003880044014B0044094F00F4080F00F405E
:00000001FF
